:107C00001F92CDB7DEB7112484B714BE982F9D7094
:107C100009F0F1D085E08093810082E08093C0007C
:107C200088E18093C10086E08093C20080E1809368
:107C3000C4008EE0CBD0259A26E080E39CEF31E0B3
:107C4000909385008093840036BBB09BFECF1D9A35
:107C5000A8952150A9F7612C712C93E0D92ECC2442
:107C6000C39425E0B22E31E1A32EA4D0813479F45F
:107C7000A1D08983B1D08981823811F482E005C016
:107C8000813811F486E001C083E08DD089C0823450
:107C900011F484E103C0853419F485E0A5D080C0D7
:107CA000853541F487D0682E85D0712C782A660CF2
:107CB000771C75C0863521F484E096D080E0E5CF4E
:107CC000843609F043C076D075D0982E73D0F82E44
:107CD00000E011E06FD0F80181938F019E12FACF7E
:107CE0007BD0F5E4FF120FC0730100E011E09016A5
:107CF00009F456C0F80161918F01C7018AD0FFEFE6
:107D0000EF1AFF0AF4CFF301D7BEE89507B600FCDF
:107D1000FDCFA301A0E0B1E02C911296CD01019717
:107D2000FC01808130E0382BFA010901C7BEE895DB
:107D300011244E5F5F4F9A12EFCFF301B7BEE89563
:107D400007B600FCFDCFA7BEE8952AC08437D1F462
:107D500031D030D0F82E2ED089833ED08981830156
:107D6000853449F4F60CC8014CD01DD00F5F1F4F6D
:107D7000F012F9CF15C0F80185918F0114D0FA9453
:107D8000D1F70EC0853739F427D08EE10CD085E9C4
:107D90000AD08FE07ACF813511F488E017D01CD05B
:107DA00080E101D062CF9091C00095FFFCCF80931D
:107DB000C60008958091C00087FFFCCF8091C0006D
:107DC00084FD01C0A8958091C6000895E0E6F0E02A
:107DD00098E1908380830895EDDF803219F088E088
:107DE000F5DFFFCF84E1DFCFCF93C82FE3DFC150B2
:107DF000E9F7CF91F1CF282E80E0E8DFE0E0FF2720
:107E00000994F999FECF92BD81BDF89A992780B562
:107E10000895262FF999FECF1FBA92BD81BD20BDCE
:0E7E20000FB6F894FA9AF99A0FBE01960895DB
:027FFE00020679
:0400000300007C007D
:00000001FF
