:1070000055C000008AC0000088C0000086C0000093
:1070100084C0000082C0000080C000007EC000006C
:107020007CC000007AC0000000C5000076C00000EF
:1070300074C0000072C0000070C000006EC000008C
:107040006CC000006AC0000068C0000066C000009C
:1070500021C3000062C0000060C000005EC00000EC
:107060005CC000005AC0000058C0000056C00000BC
:1070700054C0000052C0000050C000004EC00000CC
:107080004CC000004AC0000048C0000046C00000DC
:1070900044C0000042C0000040C000003EC00000EC
:1070A0003CC000003AC0000038C0000011241FBEE0
:1070B000CFEFDAE0DEBFCDBF04B603FE19C080918A
:1070C000A2019091A30182349C4D91F484B7877FF3
:1070D00084BF88E10FB6F89480936000109260003E
:1070E0000FBE1092A3011092A201E0E0F0E009951A
:1070F00011E0A0E0B1E0ECEFFDE702C005900D92D9
:10710000A239B107D9F721E0A2E9B1E001C01D928F
:10711000A23AB207E1F731D06FC672CF84E0809314
:10712000E9008091E80085FD0EC08091E8008B7732
:107130008093E8008091E80082FDF3CF8EB3811147
:10714000F9CF80E008958091F100089593E0909345
:10715000E9009091E80095FF03C08093F100089545
:107160009091E8009E779093E8009091E80090FD60
:10717000F4CF9EB39111F9CF0895CF93DF9300D050
:107180001F92CDB7DEB784B7877F84BF88E10FB683
:10719000F89480936000109260000FBE90E080E849
:1071A0000FB6F89480936100909361000FBE11E0D8
:1071B00015BF82E085BF1CD48AB1806F8AB98BB1BC
:1071C0008F708BB910936F0083E0809381008BB137
:1071D0008F7080618BB97894A3E06A2E01E0212C36
:1071E000312C85E0782E80910001882309F43BC280
:1071F00084E08093E9008091E80082FF29C28EDF5D
:10720000982F853419F41092000107C088E8890F7F
:10721000823010F0943521F481DF8DE097DFF0C1EA
:107220009035D9F39C34C9F3943721F484E48EDF8C
:1072300080E0F4CF913611F489E5F0CF913491F4E8
:107240006DDF182F6BDF90E0880F991F212F30E042
:10725000322F2227330F822B932BAA2797FDA0953D
:10726000BA2FA2C1903711F483E5D8CF933571F4CA
:107270007AE8E72E71E0F72EF70181917F0166DF52
:10728000F1E9EF16F1E0FF06B9F7BAC1963521F43E
:1072900081E35CDF80E3C2CF933731F487E856DFC8
:1072A00085E954DF8EE1BACF9536A9F4E0E0F0E04D
:1072B00060925700E89507B600FCFDCF709257002A
:1072C000E89507B600FCFDCFE058FF4FE11580E7D9
:1072D000F80771F7A2CF9C3651F420DF809599E032
:1072E000E1E0F0E0082E90935700E89596CF9237B2
:1072F00021F489E0E1E0F0E010C0963419F489E06F
:10730000F1010BC09E3421F489E0E3E0F0E005C018
:10731000913539F489E0E2E0F0E080935700849100
:107320007DCF923631F489E511DF80E00FDF80E810
:1073300075CF923419F0973609F0D1C09983EEDEFB
:10734000A82EB12CBA2CAA24E9DEA82AE7DE182F31
:107350008BEB810F9981823010F08FE35FCF9736EE
:1073600009F044C081E180935700E8954501B12CB4
:107370008114910409F444C1C0909401D090950106
:10738000E0909601F09097011634B9F4EB2DF0E0FF
:10739000EC29FD298491DADEBB2069F0F2E0CF0E02
:1073A000D11CE11CF11CC0929401D0929501E09295
:1073B0009601F0929701B02615C0D701C601B69587
:1073C000A7959795879502D5C1DE82E0C80ED11C9E
:1073D000E11CF11CC0929401D0929501E0929601BB
:1073E000F092970191E0891A9108C2CFC090940160
:1073F000D0909501E0909601F0909701163429F015
:10740000BB82AA82412C512C34C0F60160925700F5
:10741000E89507B600FCFDCFF3CF163491F5552063
:1074200069F18090940190909501A0909601B090A0
:10743000970174DE242D30E0382BF401090100930C
:107440005700E8951124F2E08F0E911CA11CB11C8D
:107450008092940190929501A0929601B09297012A
:1074600081E0511080E0582E8A819B8101979B8397
:107470008A83EA81FB81EF2B81F626C04FDE482EFE
:10748000EFCF4CDE682F8091940190919501A091EF
:107490009601B0919701B695A795979587959ED43B
:1074A0008091940190919501A0919601B0919701DE
:1074B0000296A11DB11D8093940190939501A09314
:1074C0009601B0939701D0CF163409F0A6CEF601FD
:1074D00070925700E89507B600FCFDCF9ECE93341E
:1074E00069F4E0909401F090950118DE90E0F701C6
:1074F0000C0100935700E89511248FCE9336F9F4D0
:10750000C0909401D0909501E0909601F090970181
:1075100005DEF601E16090E00C0100935700E8956C
:107520001124F2E0CF0ED11CE11CF11CC092940199
:10753000D0929501E0929601F09297016ECE9D3621
:1075400059F4E0919401F091950170925700E895FB
:1075500007B600FCFDCF61CE923551F4E091940165
:10756000F0919501E590F4908F2DF0DD8E2D56CEA3
:10757000943419F5D3DD682F809194019091950191
:10758000A0919601B0919701B695A795979587958B
:1075900025D48091940190919501A0919601B0918C
:1075A00097010296A11DB11D8093940190939501BE
:1075B000A0939601B093970130CE9436F1F4C09029
:1075C0009401D0909501E0909601F0909701D70139
:1075D000C601B695A79597958795F8D3B7DD82E054
:1075E000C80ED11CE11CF11CC0929401D0929501EF
:1075F000E0929601F092970103C09B3109F0ADCE65
:107600006092E9009091E8008091E8008E77809385
:10761000E80095FD11C08091E80080FD04C08EB3A4
:107620008111F9CF15C08091E8008E778093E80032
:1076300003C08EB3882361F08091E80080FFF9CF0A
:1076400084E08093E9008091E8008B778093E800E4
:10765000A2D38091920190919301459708F4C3CDF4
:1076600010920001BECD8091E00081608093E00027
:1076700082E49CED9093A3018093A2012CE088E129
:1076800090E00FB6F894A895809360000FBE209309
:107690006000FFCF1F920F920FB60F9211242F930D
:1076A0008F939F93EF93FF9380E389B9E0E0F0E03D
:1076B00085919491019649F0809192019091930166
:1076C00001969093930180939201FF91EF919F9186
:1076D0008F912F910F900FBE0F901F90189542E041
:1076E00061EC82E017D142E161E883E013D142E12D
:1076F00060E884E00FC180919A018F778132D9F5DB
:1077000080E389B980919B01813229F0823249F16D
:10771000803289F512C080919A01813A61F5809199
:10772000E800877F8093E80067E070E081E091E007
:1077300056D08091E8008B7711C080919A018132F8
:10774000D1F48091E800877F8093E80067E070E0E3
:1077500081E091E0A1D08091E8008E778093E800ED
:10776000089580919A01813231F48091E800877FF9
:107770008093E800E3C00895292F30E022303105DE
:1077800039F02330310549F02130310561F410C062
:107790008EE390E02AE331E01EC0882371F081304F
:1077A00089F08230A1F080E090E020E030E013C06A
:1077B00082E190E028E731E00EC084E090E026E32B
:1077C00031E009C088E190E02CE131E004C082E1C1
:1077D00090E028E031E0FA01318320830895209180
:1077E000A0013091A1012617370748F061157105F6
:1077F00039F42091E8002E772093E80001C0B90108
:10780000FC0120E061157105A1F18EB38823F1F12F
:107810008530F1F18091E80083FD3CC08091E80063
:1078200082FF06C08091E80082FF26C080E00895B4
:107830008091E80080FFE6CF2091F3008091F20074
:1078400090E0922B6115710551F08830910538F464
:1078500021912093F100615071090196F3CF21E04D
:10786000089709F020E08091E8008E778093E80087
:10787000C9CF2111CACFD6CF8EB3882339F0853036
:1078800039F08091E80083FFCDCF04C082E00895F5
:1078900083E0089581E008956115710529F4209130
:1078A000E8002B772093E8006115710531F12EB3C4
:1078B000222361F1253061F12091E80023FD22C0EF
:1078C0002091E80022FFF3CFFC01CF014091F300AB
:1078D0002091F20030E0342B232B09F38091F1004A
:1078E0008193CF01615071096115710571F7D7CF8F
:1078F0008EB3882359F0853059F08091E80080FFDD
:10790000F7CF02C081E0089580E0089582E00895F5
:1079100083E008958F708093E900EBEEF0E08081C2
:1079200081608083EDEEF0E010826093EC00408394
:107930008091EE00881F8827881F089580919A0102
:1079400087FD05C08091E80080FF0DC010C08091C8
:10795000E80082FD04C08EB38111F9CF08958091B3
:10796000E8008B7707C08EB38111ECCF089580912A
:10797000E8008E778093E80008950F931F93CF93CC
:10798000DF9346D04DD0C8EDD0E088818F778883D3
:1079900088818068888388818F7D888319BC1EBA1E
:1079A0001092980100EE10E0F80180818B7F8083B7
:1079B00088818160888342E060E080E0ABDFE1EEB7
:1079C000F0E080818E7F8083E2EEF0E08081816054
:1079D0008083808188608083F80180818E7F8083AE
:1079E000888180618883DF91CF911F910F910895E5
:1079F000E8EDF0E080818F7E8083E7EDF0E080812C
:107A00008160808384E082BF81E080939901B5CF5B
:107A1000E8EDF0E080818E7F80831092E20008958F
:107A20001092DA001092E10008951F920F920FB6A3
:107A30000F9211242F933F934F935F936F937F93F4
:107A40008F939F93AF93BF93EF93FF938091DA004F
:107A500080FF1BC08091D80080FF17C08091DA00A2
:107A60008E7F8093DA008091D90080FF0BC080E187
:107A700089BD82E189BD09B400FEFDCF81E08EBBE6
:107A800089D103C019BC1EBA85D18091E10080FF65
:107A900017C08091E20080FF13C08091E2008E7FCA
:107AA0008093E2008091E20080618093E200809107
:107AB000D80080628093D80019BC85E08EBB6AD163
:107AC0008091E10084FF2EC08091E20084FF2AC0F3
:107AD00080E189BD82E189BD09B400FEFDCF8091BE
:107AE000D8008F7D8093D8008091E1008F7E8093B5
:107AF000E1008091E2008F7E8093E2008091E200BD
:107B000081608093E20080919801882311F084E0E5
:107B100007C08091E30087FF02C083E001C081E0DD
:107B20008EBB38D18091E10083FF21C08091E200BB
:107B300083FF1DC08091E100877F8093E10082E098
:107B40008EBB109298018091E1008E7F8093E100BE
:107B50008091E2008E7F8093E2008091E20080615C
:107B60008093E20042E060E080E0D4DE13D1FF9138
:107B7000EF91BF91AF919F918F917F916F915F91A5
:107B80004F913F912F910F900FBE0F901F9018951E
:107B90001F93CF93DF9300D0CDB7DEB7EAE9F1E0D2
:107BA0008091F100819381E0E23AF807C9F7A3DD03
:107BB0008091E80083FFDAC090919A0180919B0147
:107BC000853009F465C030F4813059F168F08330B4
:107BD00041F1CCC0883009F49CC0893009F4ABC0B5
:107BE000863009F0C3C075C0903881F0923809F032
:107BF000BDC080919E018F708093E9009091EB0051
:107C000095FB992790F91092E90001C090E08091CE
:107C1000E800877F8093E8009093F1001092F100D4
:107C200083C0292F2D7F09F0A1C0923009F09EC09A
:107C300090919C01911126C020919E012F7009F412
:107C400095C02093E9009091EB0090FF1BC083301A
:107C500021F48091EB00806213C08091EB00806181
:107C60008093EB0081E090E0022E01C0880F0A941F
:107C7000EAF78093EA001092EA008091EB008860B6
:107C80008093EB001092E9008091E800877F4FC05D
:107C900091116CC010919C011F778091E300807856
:107CA000812B8093E3008091E800877F8093E80038
:107CB00045DE8091E80080FFFCCF8091E300806882
:107CC0008093E300112311F083E001C082E08EBBBA
:107CD0004DC09058923008F049C0AE014F5F5F4FE1
:107CE00060919E0180919C0190919D0145DD0097DE
:107CF00009F43CC02091E800277F2093E800BC01F4
:107D000089819A816CDD8091E8008B778093E8000F
:107D10002DC0903859F58091E800877F8093E80066
:107D2000809198018093F1008091E8008E77809394
:107D3000E80004DE1BC0911119C090919C019230A3
:107D4000A8F48091E800877F8093E80090939801E1
:107D5000F5DD80919801811104C08091E30087FFD7
:107D600002C084E001C081E08EBBB9DC8091E800F4
:107D700083FF0AC08091E800877F8093E8008091AC
:107D8000EB0080628093EB000F900F90DF91CF911A
:107D90001F9108950895CF938EB38823A9F0809101
:107DA000E9008F709091EC0090FF02C090E801C054
:107DB00090E0C92FC82B1092E9008091E80083FD64
:107DC000E7DECF70C093E900CF910895F999FECF17
:107DD00092BD81BDF89A992780B50895262FF9990B
:107DE000FECF1FBA92BD81BD20BD0FB6F894FA9A9E
:0C7DF000F99A0FBE01960895F894FFCF99
:107DFC00010000000000000812034C005500460072
:107E0C0041002000430044004300000018034400DC
:107E1C00650061006E002000430061006D0065008C
:107E2C007200610000000403090409023E00020113
:107E3C000080320904000001020201000524001038
:107E4C000104240202052406000107058203080030
:107E5C00FF09040100020A000000070504021000DB
:107E6C00050705830210000512011001020000082D
:107E7C00EB034A200001010200014C5546414344EA
:027E8C004300B1
:040000030000700089
:00000001FF
